{
  "_format": "hh-sol-artifact-1",
  "contractName": "Bids",
  "sourceName": "contracts/Bids.sol",
  "abi": [
    {
      "anonymous": false,
      "inputs": [],
      "name": "BidPerformed",
      "type": "event"
    },
    {
      "anonymous": false,
      "inputs": [],
      "name": "CloseBids",
      "type": "event"
    },
    {
      "stateMutability": "nonpayable",
      "type": "fallback"
    },
    {
      "inputs": [
        {
          "internalType": "enum Games",
          "name": "game",
          "type": "uint8"
        },
        {
          "internalType": "uint256",
          "name": "bidLocal",
          "type": "uint256"
        },
        {
          "internalType": "uint256",
          "name": "bidVisitor",
          "type": "uint256"
        }
      ],
      "name": "bidForAGame",
      "outputs": [],
      "stateMutability": "payable",
      "type": "function"
    },
    {
      "inputs": [],
      "name": "closeContractBids",
      "outputs": [],
      "stateMutability": "nonpayable",
      "type": "function"
    },
    {
      "inputs": [],
      "name": "getAddressedBids",
      "outputs": [
        {
          "components": [
            {
              "internalType": "enum Games",
              "name": "id",
              "type": "uint8"
            },
            {
              "internalType": "uint256",
              "name": "bidLocal",
              "type": "uint256"
            },
            {
              "internalType": "uint256",
              "name": "bidVisitor",
              "type": "uint256"
            }
          ],
          "internalType": "struct Bid[]",
          "name": "",
          "type": "tuple[]"
        }
      ],
      "stateMutability": "view",
      "type": "function"
    },
    {
      "inputs": [],
      "name": "getBiddableState",
      "outputs": [
        {
          "internalType": "bool",
          "name": "",
          "type": "bool"
        }
      ],
      "stateMutability": "view",
      "type": "function"
    },
    {
      "inputs": [],
      "name": "getBidsResults",
      "outputs": [],
      "stateMutability": "nonpayable",
      "type": "function"
    },
    {
      "inputs": [],
      "name": "getOpenGamesForBids",
      "outputs": [
        {
          "components": [
            {
              "internalType": "string",
              "name": "name",
              "type": "string"
            },
            {
              "internalType": "enum Games",
              "name": "id",
              "type": "uint8"
            },
            {
              "internalType": "uint8",
              "name": "earningsLocal",
              "type": "uint8"
            },
            {
              "internalType": "uint8",
              "name": "earningsVisitor",
              "type": "uint8"
            }
          ],
          "internalType": "struct BidGame[3]",
          "name": "",
          "type": "tuple[3]"
        }
      ],
      "stateMutability": "pure",
      "type": "function"
    },
    {
      "inputs": [
        {
          "internalType": "string",
          "name": "name",
          "type": "string"
        },
        {
          "internalType": "address",
          "name": "winner",
          "type": "address"
        }
      ],
      "name": "setBidWinner",
      "outputs": [],
      "stateMutability": "nonpayable",
      "type": "function"
    }
  ],
  "bytecode": "0x608060405260018060006101000a81548160ff02191690831515021790555034801561002a57600080fd5b50610e458061003a6000396000f3fe6080604052600436106100745760003560e01c8063717ee0d21161004e578063717ee0d214610116578063a06140d91461013f578063d01fb63b1461016a578063eccaaab01461019557610075565b80631ed191c9146100bd57806321b73f3f146100d45780632e2e3ab6146100eb57610075565b5b34801561008157600080fd5b506040517f08c379a00000000000000000000000000000000000000000000000000000000081526004016100b4906106f8565b60405180910390fd5b3480156100c957600080fd5b506100d26101b1565b005b3480156100e057600080fd5b506100e96101fa565b005b3480156100f757600080fd5b506101006101fc565b60405161010d919061095d565b60405180910390f35b34801561012257600080fd5b5061013d60048036038101906101389190610a4c565b610373565b005b34801561014b57600080fd5b50610154610378565b6040516101619190610ac7565b60405180910390f35b34801561017657600080fd5b5061017f61038f565b60405161018c9190610bec565b60405180910390f35b6101af60048036038101906101aa9190610c5f565b61047a565b005b6000600160006101000a81548160ff0219169083151502179055507fbc790afff6a097dde1dfa8a553011ad968ceefb4a01545acf4e392504826dfba60405160405180910390a1565b565b61020461062e565b604051806060016040528060405180608001604052806040518060400160405280600881526020017f666f6f7462616c6c000000000000000000000000000000000000000000000000815250815260200160006002811115610269576102686107d1565b5b8152602001600f60ff168152602001600260ff16815250815260200160405180608001604052806040518060400160405280600681526020017f74656e6e697300000000000000000000000000000000000000000000000000008152508152602001600160028111156102df576102de6107d1565b5b8152602001600860ff168152602001600460ff16815250815260200160405180608001604052806040518060400160405280600a81526020017f6261736b657462616c6c000000000000000000000000000000000000000000008152508152602001600280811115610354576103536107d1565b5b8152602001600360ff168152602001601e60ff16815250815250905090565b505050565b6000600160009054906101000a900460ff16905090565b6060600260003373ffffffffffffffffffffffffffffffffffffffff1673ffffffffffffffffffffffffffffffffffffffff168152602001908152602001600020805480602002602001604051908101604052809291908181526020016000905b8282101561047157838290600052602060002090600302016040518060600160405290816000820160009054906101000a900460ff166002811115610438576104376107d1565b5b600281111561044a576104496107d1565b5b815260200160018201548152602001600282015481525050815260200190600101906103f0565b50505050905090565b600081836104889190610ce1565b90508034146104cc576040517f08c379a00000000000000000000000000000000000000000000000000000000081526004016104c390610d83565b60405180910390fd5b600160009054906101000a900460ff16156105c157600260003373ffffffffffffffffffffffffffffffffffffffff1673ffffffffffffffffffffffffffffffffffffffff168152602001908152602001600020604051806060016040528086600281111561053e5761053d6107d1565b5b815260200185815260200184815250908060018154018082558091505060019003906000526020600020906003020160009091909190915060008201518160000160006101000a81548160ff021916908360028111156105a1576105a06107d1565b5b0217905550602082015181600101556040820151816002015550506105fc565b6040517f08c379a00000000000000000000000000000000000000000000000000000000081526004016105f390610def565b60405180910390fd5b7fcad562eb55ade4ca05781328914f68d1ff4bce4ed34cbf30b992a6b695dc6c9f60405160405180910390a150505050565b60405180606001604052806003905b61064561065b565b81526020019060019003908161063d5790505090565b60405180608001604052806060815260200160006002811115610681576106806107d1565b5b8152602001600060ff168152602001600060ff1681525090565b600082825260208201905092915050565b7f6d697373666f756e646564206d6574686f640000000000000000000000000000600082015250565b60006106e260128361069b565b91506106ed826106ac565b602082019050919050565b60006020820190508181036000830152610711816106d5565b9050919050565b600060039050919050565b600081905092915050565b6000819050919050565b600081519050919050565b600082825260208201905092915050565b60005b83811015610772578082015181840152602081019050610757565b83811115610781576000848401525b50505050565b6000601f19601f8301169050919050565b60006107a382610738565b6107ad8185610743565b93506107bd818560208601610754565b6107c681610787565b840191505092915050565b7f4e487b7100000000000000000000000000000000000000000000000000000000600052602160045260246000fd5b60038110610811576108106107d1565b5b50565b600081905061082282610800565b919050565b600061083282610814565b9050919050565b61084281610827565b82525050565b600060ff82169050919050565b61085e81610848565b82525050565b600060808301600083015184820360008601526108818282610798565b91505060208301516108966020860182610839565b5060408301516108a96040860182610855565b5060608301516108bc6060860182610855565b508091505092915050565b60006108d38383610864565b905092915050565b6000602082019050919050565b60006108f382610718565b6108fd8185610723565b93508360208202850161090f8561072e565b8060005b8581101561094b578484038952815161092c85826108c7565b9450610937836108db565b925060208a01995050600181019050610913565b50829750879550505050505092915050565b6000602082019050818103600083015261097781846108e8565b905092915050565b600080fd5b600080fd5b600080fd5b600080fd5b600080fd5b60008083601f8401126109ae576109ad610989565b5b8235905067ffffffffffffffff8111156109cb576109ca61098e565b5b6020830191508360018202830111156109e7576109e6610993565b5b9250929050565b600073ffffffffffffffffffffffffffffffffffffffff82169050919050565b6000610a19826109ee565b9050919050565b610a2981610a0e565b8114610a3457600080fd5b50565b600081359050610a4681610a20565b92915050565b600080600060408486031215610a6557610a6461097f565b5b600084013567ffffffffffffffff811115610a8357610a82610984565b5b610a8f86828701610998565b93509350506020610aa286828701610a37565b9150509250925092565b60008115159050919050565b610ac181610aac565b82525050565b6000602082019050610adc6000830184610ab8565b92915050565b600081519050919050565b600082825260208201905092915050565b6000819050602082019050919050565b6000819050919050565b610b2181610b0e565b82525050565b606082016000820151610b3d6000850182610839565b506020820151610b506020850182610b18565b506040820151610b636040850182610b18565b50505050565b6000610b758383610b27565b60608301905092915050565b6000602082019050919050565b6000610b9982610ae2565b610ba38185610aed565b9350610bae83610afe565b8060005b83811015610bdf578151610bc68882610b69565b9750610bd183610b81565b925050600181019050610bb2565b5085935050505092915050565b60006020820190508181036000830152610c068184610b8e565b905092915050565b60038110610c1b57600080fd5b50565b600081359050610c2d81610c0e565b92915050565b610c3c81610b0e565b8114610c4757600080fd5b50565b600081359050610c5981610c33565b92915050565b600080600060608486031215610c7857610c7761097f565b5b6000610c8686828701610c1e565b9350506020610c9786828701610c4a565b9250506040610ca886828701610c4a565b9150509250925092565b7f4e487b7100000000000000000000000000000000000000000000000000000000600052601160045260246000fd5b6000610cec82610b0e565b9150610cf783610b0e565b9250827fffffffffffffffffffffffffffffffffffffffffffffffffffffffffffffffff03821115610d2c57610d2b610cb2565b5b828201905092915050565b7f596f7520646f6e27742073656e6420656e61756768206d6f6e65790000000000600082015250565b6000610d6d601b8361069b565b9150610d7882610d37565b602082019050919050565b60006020820190508181036000830152610d9c81610d60565b9050919050565b7f426964732061726520616c726561647920636c6f736564210000000000000000600082015250565b6000610dd960188361069b565b9150610de482610da3565b602082019050919050565b60006020820190508181036000830152610e0881610dcc565b905091905056fea26469706673582212201c29fd809f36a518c9bf6002fdb1830c0472017b61f22721542f418d351f63cc64736f6c634300080a0033",
  "linkReferences": {},
  "deployedLinkReferences": {}
}